{
  "contractName": "Verifier",
  "abi": [
    {
      "constant": true,
      "inputs": [
        {
          "internalType": "uint256[2]",
          "name": "a",
          "type": "uint256[2]"
        },
        {
          "internalType": "uint256[2][2]",
          "name": "b",
          "type": "uint256[2][2]"
        },
        {
          "internalType": "uint256[2]",
          "name": "c",
          "type": "uint256[2]"
        },
        {
          "internalType": "uint256[2]",
          "name": "input",
          "type": "uint256[2]"
        }
      ],
      "name": "verifyTx",
      "outputs": [
        {
          "internalType": "bool",
          "name": "r",
          "type": "bool"
        }
      ],
      "payable": false,
      "stateMutability": "view",
      "type": "function"
    }
  ],
  "bytecode": "0x608060405234801561001057600080fd5b506101e8806100206000396000f3fe608060405234801561001057600080fd5b506004361061002b5760003560e01c8063621e9ec014610030575b600080fd5b61018f600480360361014081101561004757600080fd5b8101908080604001906002806020026040519081016040528092919082600260200280828437600081840152601f19601f82011690508083019250505050505091929192908060800190600280602002604051908101604052809291906000905b828210156100fc578382604002016002806020026040519081016040528092919082600260200280828437600081840152601f19601f820116905080830192505050505050815260200190600101906100a8565b50505050919291929080604001906002806020026040519081016040528092919082600260200280828437600081840152601f19601f820116905080830192505050505050919291929080604001906002806020026040519081016040528092919082600260200280828437600081840152601f19601f82011690508083019250505050505091929192905050506101a9565b604051808215151515815260200191505060405180910390f35b600094935050505056fea265627a7a72315820a114185fb42b3dcdffaa0c83f9f4f8c12366fbd935d532a3862e2b71e8762b7f64736f6c63430005110032",
  "source": "pragma solidity ^0.5.17;\n\nimport \"./ERC721Mintable.sol\";\n\n// TODO define another contract named SolnSquareVerifier that inherits from your ERC721Mintable class\ncontract SolnSquareVerifier is CustomERC721Token {\n\n    Verifier private zkVerifier;\n\n    // TODO define a solutions struct that can hold an index & an address\n    struct Solution {\n        uint256 index;\n        address solAddress;\n    }\n\n    // TODO define an array of the above struct\n    Solution[] private solutions;\n\n    // TODO define a mapping to store unique solutions submitted\n    mapping(bytes32 => Solution) submittedSolutions;\n\n    constructor() public {}\n\n    event SolutionAdded(uint256 index, address solAddress);\n\n    // TODO Create a function to add the solutions to the array and emit the event\n    function addSolution(\n        uint256[2] calldata a,\n        uint256[2][2] calldata b,\n        uint256[2] calldata c,\n        uint256[2] calldata input\n    ) external {\n        bytes32 key = generateSolutionKey(input);\n        require(submittedSolutions[key].solAddress == address(0), \"Solution already submitted\");\n\n        bool isValid = zkVerifier.verifyTx(a, b, c, input);\n        require(isValid, \"Solution is not valid\");\n\n        //first solution will have a 0 index\n        Solution memory solution = Solution({index: solutions.length, solAddress: msg.sender});\n\n        solutions.push(solution);\n        submittedSolutions[key] = solution;\n\n        emit SolutionAdded(solution.index, solution.solAddress);\n    }\n\n    // TODO Create a function to mint new NFT only after the solution has been verified\n    //  - make sure the solution is unique (has not been used before)\n    //  - make sure you handle metadata as well as tokenSuplly\n    function mintToken(uint256[2] calldata input, address to) external {\n        bytes32 key = generateSolutionKey(input);\n        require(submittedSolutions[key].solAddress != address(0), \"The solution does not exist\");\n        require(submittedSolutions[key].solAddress == msg.sender, \"Sender is not the owner of the solution\");\n        require(!_exists(submittedSolutions[key].index), \"Token already exists\");\n        super.mint(to, submittedSolutions[key].index);\n    }\n\n    function generateSolutionKey(uint256[2] memory input) internal pure returns(bytes32) {\n        return keccak256(abi.encodePacked(input));\n    }\n}\n\n// TODO define a contract call to the zokrates generated solidity contract <Verifier> or <renamedVerifier>\ncontract Verifier {\n    function verifyTx(\n        uint256[2] memory a,\n        uint256[2][2] memory b,\n        uint256[2] memory c,\n        uint256[2] memory input\n    ) public view returns (bool r) {}\n}\n",
  "sourcePath": "/Users/victorholo/Documents/Courses/Udacity/FinalProjects/Blockchain-Capstone/eth-contracts/contracts/SolnSquareVerifier.sol",
  "compiler": {
    "name": "solc",
    "version": "0.5.17+commit.d19bba13.Emscripten.clang"
  },
  "schemaVersion": "3.3.2",
  "updatedAt": "2020-12-03T17:22:39.028Z",
  "devdoc": {
    "methods": {}
  },
  "userdoc": {
    "methods": {}
  }
}